S00E00005553415254302E7372656357
S11300000C9434000C9451000C9451000C94510045
S11300100C9451000C9451000C9451000C94510018
S11300200C9451000C9451000C9451000C943E0219
S11300300C9451000C9451000C9451000C945100F8
S11300400C9451000C9451000C9421020C94510016
S11300500C9451000C9451000C9451000C945100D8
S11300600C9451000C94510011241FBECFEFD8E022
S1130070DEBFCDBF11E0A0E0B1E0E8EDF4E002C0E6
S113008005900D92A230B107D9F722E0A2E0B1E0C9
S113009001C01D92A631B207E1F70E94E0010C9461
S11300A06A020C940000E2ECF0E090819F7B908364
S11300B090819F77908390819F7E908390819F7D94
S11300C090839081977F90839081926090839081B8
S11300D094609083E1ECF0E090819B7F9083A0ECAE
S11300E0B0E09C919D7F9C9390E09093C500809399
S11300F0C400808188608083808180618083808166
S113010080688083089584B1806284B985B18F7DCD
S113011085B984B1816084B9089581E792E09093B0
S1130120890080938800109285001092840082E0F8
S113013080936F008CE080938100089590910F026A
S1130140B5C0809111028230C9F12CF4882361F08A
S11301508130E9F0A1C0843009F45EC00CF445C0DC
S1130160853009F47AC098C0E0910401F0E0E75FBB
S1130170FE4F8081853519F4809314028DC08091DF
S11301800F02809304018FEF8093110285C0E091E8
S11301900401F0E0E75FFE4F80818E3431F420915A
S11301A0140282278093140277C080910401815045
S11301B0809304018FEF809311026EC0E0910401DB
S11301C0F0E0E75FFE4F8081853431F42091140222
S11301D082278093140260C080910401815080932F
S11301E004018FEF8093110257C0E0910401F0E005
S11301F0E75FFE4F8081823531F42091140282271B
S11302008093140249C080910401815080930401B9
S11302108FEF8093110240C0E0910401F0E0E75FAA
S1130220FE4F8081882381F0E0910401F0E0E75FD4
S1130230FE4F808180930701809107012091140271
S113024082278093140228C08091040181508093F6
S113025004018FEF809311021FC0E0910401F0E0CC
S1130260E75FFE4F80818A3379F4E0910401F0E086
S1130270E75FFE4F2081809114028227809314024D
S113028082E08093150208C080910401815080931C
S113029004018FEF80931102809111028F5F80938C
S11302A01102809104018F5F809304018091040105
S11302B0981729F080911502813009F442CF0895EE
S11302C019C0813021F49091040190930201E091CE
S11302D00401F0E0E75FFE4F208190911402922721
S11302E090931402909104019F5F909304018F5F97
S11302F0809300019091040180910F02981761F09E
S113030080910001482F50E020910701022E000C3B
S1130310330B42175307ACF22091000130E0809177
S11303200701082E000C990B2817390719F590912D
S1130330040180910F029817E9F081E08093000195
S1130340E0910401F0E0E75FFE4F90818091140298
S1130350981307C085B1816085B983E08093150245
S113036007C081E08093150280910F0280930401FD
S1130370109211020895E0910201F0E0E75FFE4F50
S113038080818B3219F08D3271F0089581E0809371
S11303901502809105019091060105969093130230
S11303A080931202089581E08093150280910501E3
S11303B09091060105979093130280931202089579
S11303C087E60E9453000E9483000E948D00789467
S11303D085E090E0909306018093050110920F024E
S11303E0109204011092110281E0809315028AE0B8
S11303F0809308011092100289E190E09093130217
S1130400809312029091040180910F029817D1F306
S113041080911502823039F0833041F0813091F7B8
S11304200E949E00EFCF0E946001ECCF80910401F6
S11304308F5F809304010E94BB0181E080931502C9
S1130440E1CF1F920F920FB60F9211248F93EF9367
S1130450FF93E0910F02F0E08091C600E75FFE4F4A
S1130460808380910F028F5F80930F02FF91EF9141
S11304708F910F900FBE0F901F9018951F920F929F
S11304800FB60F9211248F939F9380911202909133
S11304901302019790931302809312028091120227
S11304A090911302892B79F489E190E090931302DF
S11304B0809312022D9B04C085B18F7D85B903C042
S11304C085B1806285B99F918F910F900FBE0F9077
S10B04D01F901895F894FFCF6A
S10504D801001D
S9030000FC
