S00E00005553415254302E7372656357
S11300000C943C000C9459000C9459000C94590025
S11300100C9459000C9459000C9459000C945900F8
S11300200C9459000C9459000C9459000C947902C6
S11300300C9459000C9459000C9459000C945900D8
S11300400C9459000C9459000C945C020C945900C3
S11300500C9459000C9459000C9459000C945900B8
S11300600C9459000C945900B700CA00E100F80040
S11300700F0130014D015D0111241FBECFEFD8E007
S1130080DEBFCDBF11E0A0E0B1E0ECE3F5E002C0DB
S113009005900D92A230B107D9F722E0A2E0B1E0B9
S11300A001C01D92A431B207E1F70E94FD010C9436
S11300B09C020C940000E2ECF0E090819F7B908322
S11300C090819F77908390819F7E908390819F7D84
S11300D090839081977F90839081926090839081A8
S11300E094609083E1ECF0E090819B7F9083A0EC9E
S11300F0B0E09C919D7F9C9390E09093C500809389
S1130100C400808188608083808180618083808155
S113011080688083089584B1806284B985B18F7DBD
S113012085B984B1816084B9089581E792E09093A0
S1130130890080938800109285001092840082E0E8
S113014080936F008CE0809381000895CDC0E0918E
S11301500F028E2FEE0F990BAA0BBB0B8830910563
S113016008F0B8C0FC01EC5CFF4F0C949602E091DF
S11301700401F0E0E75FFE4F8081853519F4809338
S11301801202A8C080910D02809304018FEF809326
S11301900F02A0C0E0910401F0E0E75FFE4F808110
S11301A08E3431F49091120289278093120292C006
S11301B0809104018150809304018FEF80930F029A
S11301C089C0E0910401F0E0E75FFE4F808185344F
S11301D031F4909112028927809312027BC080919E
S11301E004018150809304018FEF80930F0272C049
S11301F0E0910401F0E0E75FFE4F8081823531F445
S11302009091120289278093120264C080910401A4
S11302108150809304018FEF80930F025BC0E091C3
S11302200401F0E0E75FFE4F8081882381F0E091D4
S11302300401F0E0E75FFE4F808180930701809125
S113024007019091120289278093120243C0809182
S113025004018150809304018FEF80930F023AC010
S1130260E0910401F0E0E75FFE4F80818A3361F49E
S1130270E0910401F0E0E75FFE4F9081809112026B
S113028089278093120226C08091040181508093B3
S113029004018FEF80930F021DC0809104018093AD
S11302A00201E0910401F0E0E75FFE4F908180914C
S11302B012028927809312020DC0E0910401F0E03C
S11302C0E75FFE4F908180911202981303C083E090
S11302D08093130280910F028F5F80930F028091AD
S11302E004018F5F809304019091040180910D02B9
S11302F0981729F080911302813009F428CF0895CA
S113030019C02130B9F48091040180930201E09175
S11303100401F0E0E75FFE4F90818091120289278B
S113032080931202809104018F5F809304012F5FF8
S1130330209300019091040180910D02981761F0BF
S113034020910001422F50E080910701082E000CFB
S1130350990B48175907ACF22091000130E08091C5
S11303600701082E000C990B2817390701F5909105
S1130370040180910D0298131AC081E0809300015A
S1130380E0910401F0E0E75FFE4F9081809112025A
S1130390981304C083E08093130207C081E0809324
S11303A0130280910D028093040110920F020895AC
S11303B010920F02E0910201F0E0E75FFE4F8081AE
S11303C08B3219F08D3239F00895809108018160E3
S11303D08093080108958091050190910601059785
S11303E09093060180930501809105019091060187
S11303F09093110280931002089587E60E945B0097
S11304000E948B000E94950078941092060110922D
S1130410050110920D021092040110920F0281E066
S11304208093130282E390E0909311028093100270
S113043010920E029091040180910D02981799F088
S113044080911302823039F0833041F0813059F4C5
S11304500E94A60008C00E94800105C00E94D80125
S113046081E0809313028091080180FF12C0809183
S11304700501909106010A96909306018093050167
S113048095B181E0892785B9809108018E7F809399
S113049008018091100290911102892B59F68091E4
S11304A0050190910601909311028093100295B179
S11304B080E2892785B9BECF1F920F920FB60F92A3
S11304C011248F93EF93FF93E0910D02F0E080915C
S11304D0C600E75FFE4F808380910D028F5F80939B
S11304E00D02FF91EF918F910F900FBE0F901F900F
S11304F018951F920F920FB60F9211248F939F930A
S11305008091100290911102892B49F08091100280
S113051090911102019790931102809310029F9180
S11305208F910F900FBE0F901F901895EE0FFF1F25
S10F05300590F491E02D0994F894FFCF9D
S105053C0100B8
S9030000FC
