:100000000C943B000C9458000C9458000C9458002D
:100010000C9458000C9458000C9458000C94580000
:100020000C9458000C9458000C9458000C949202B4
:100030000C9458000C9458000C9458000C945800E0
:100040000C9458000C9458000C9475020C945800B1
:100050000C9458000C9458000C9458000C945800C0
:100060000C9458000C9458009800B300D200F10092
:1000700010012801350111241FBECFEFD8E0DEBFEB
:10008000CDBF11E0A0E0B1E0ECE8F5E002C00590E2
:100090000D92A230B107D9F722E0A2E0B1E001C091
:1000A0001D92A431B207E1F70E9438020C94C402F9
:1000B0000C94000090E09093C5008093C400E2ECA3
:1000C000F0E0808186608083E1ECF0E088E180836D
:1000D00080818068808308959091C00095FFFCCF57
:1000E0008093C600089581E792E090938900809301
:1000F0008800109285001092840082E080936F0047
:100100008CE0809381000895CF93C0910F02DEC0F0
:10011000E09111028E2FEE0F990BAA0BBB0B8730CB
:10012000910508F0C9C0FC01EC5CFF4F0C94BE02C5
:10013000E0910601F0E0E75FFE4F8081853559F4DC
:1001400080931202E0910601F0E0E75FFE4F8081AC
:100150000E946C00B1C080910F02809306018FEF66
:1001600080931102A9C0E0910601F0E0E75FFE4F25
:1001700080818E3471F4909112028927809312024B
:10018000E0910601F0E0E75FFE4F80810E946C0085
:1001900093C0809106018150809306018FEF809378
:1001A00011028AC0E0910601F0E0E75FFE4F808116
:1001B000853471F490911202892780931202E091A4
:1001C0000601F0E0E75FFE4F80810E946C0074C082
:1001D000809106018150809306018FEF8093110278
:1001E0006BC0E0910601F0E0E75FFE4F8081823551
:1001F00071F490911202892780931202E091060116
:10020000F0E0E75FFE4F80810E946C0055C0809156
:1002100006018150809306018FEF809311024CC03C
:10022000E0910601F0E0E75FFE4F808180930701D7
:100230008091070190911202892780931202E09128
:100240000601F0E0E75FFE4F80810E946C0034C041
:100250008091120280931202E0910601F0E0E75FC4
:10026000FE4F80810E946C0027C0E0910601F0E003
:10027000E75FFE4F80818A33B9F4E0910601F0E038
:10028000E75FFE4F908180911202892780931202CE
:1002900082E080931302E0910601F0E0E75FFE4FF9
:1002A00080810E946C0008C080910601815080937B
:1002B00006018FEF80931102809111028F5F80936E
:1002C0001102809106018F5F8093060180910601E3
:1002D000C81729F080911302813009F419CFCF910A
:1002E00008951EC0213021F48091060180930201FF
:1002F00085B1806885B9E0910601F0E0E75FFE4FC7
:1003000090818091120289278093120280910601C8
:100310008F5F80930601809100018F5F80930001C1
:100320009091060180910F02981761F020910001D1
:10033000422F50E080910701082E000C990B4817BE
:10034000590784F28091000190E0209109023091D8
:100350000A028217930701F59091060180910F021E
:100360009817D1F081E080930001E0910601F0E060
:10037000E75FFE4F908180911202981304C083E0E2
:100380008093130207C081E08093130280910F02D3
:1003900080930601109211020895E0910201F0E0AD
:1003A000E75FFE4F80818B3219F08D3289F108951D
:1003B00081E080931302E0910201F0E0E65FFE4FDE
:1003C000808190E090930C0280930B02E0910201F7
:1003D000F0E0E55FFE4F808190E0982F8827209124
:1003E0000B0230910C02822B932B90930C02809382
:1003F0000B02209104013091050180910B02909134
:100400000C02820F931F90930501809304010895BD
:1004100081E080931302E0910201F0E0E65FFE4F7D
:10042000808190E090930C0280930B02E091020196
:10043000F0E0E55FFE4F808190E0982F88272091C3
:100440000B0230910C02822B932B90930C02809321
:100450000B02809104019091050120910B023091D3
:100460000C02821B930B9093050180930401089565
:1004700087E60E945A0078940E94730085B184B187
:1004800085B184B184E690E09093050180930401E6
:1004900010920F02109206011092110281E08093D7
:1004A00013028AE0809308011092100290910601D5
:1004B00080910F029817D1F380911302823039F0A6
:1004C000833041F0813091F70E948400EFCF0E9489
:1004D0007101ECCF809106018F5F809306010E942D
:1004E000CD0181E080931302E1CF1F920F920FB6EE
:1004F0000F9211248F93EF93FF93E0910F02F0E09E
:100500008091C600E75FFE4F808380910F028F5F6E
:1005100080930F02FF91EF918F910F900FBE0F907C
:100520001F9018951F920F920FB60F9211248F9360
:100530009F9380910401909105010197909305018B
:10054000809304018091040190910501892B79F435
:1005500084E690E090930501809304012D9B04C0F4
:1005600085B18F7D85B903C085B1806285B99F91C2
:100570008F910F900FBE0F901F901895EE0FFF1FD9
:0C0580000590F491E02D0994F894FFCF51
:02058C0001006C
:00000001FF
