:100000000C943D000C944F000C944F000C944F0046
:100010000C944F000C944F000C944F000C944F0024
:100020000C944F000C944F000C944F000C94D7028A
:100030000C944F000C944F000C944F000C944F0004
:100040000C944F000C944F000C94BA020C944F0087
:100050000C944F000C944F000C944F000C944F00E4
:100060000C944F000C944F00AA00CA00ED00100140
:10007000330160018201A501D20111241FBECFEF1F
:10008000D8E0DEBFCDBF22E0A0E0B1E001C01D920C
:10009000A231B207E1F70E9413020C94FA020C9409
:1000A0000000E2ECF0E090819F7B908390819F774D
:1000B000908390819F7E908390819F7D908390819B
:1000C000977F9083908192609083908194609083D9
:1000D000E1ECF0E090819B7F9083A0ECB0E09C91FC
:1000E0009D7F9C9390E09093C5008093C400808195
:1000F0008860808380818061808380818068808344
:10010000089584B1806284B985B18F7D85B984B149
:10011000816084B9089581E792E09093890080938B
:100120008800109285001092840082E080936F0016
:100130008CE080938100089553C1E0910D020E2E52
:10014000000CFF0BE930F10508F04AC1EC5CFF4FF1
:100150000C94F402E0910201F0E0E95FFE4F80812F
:10016000853569F48093100280910D028F5F809332
:100170000D02809102018F5F8093020131C1809155
:10018000020181508093020180910D028150809381
:100190000D0226C1E0910201F0E0E95FFE4F80818F
:1001A0008E3481F4909110028927809310028091FF
:1001B0000D028F5F80930D02809102018F5F80930B
:1001C00002010EC180910201815080930201809151
:1001D0000D02815080930D0203C1E0910201F0E015
:1001E000E95FFE4F8081853481F490911002892768
:1001F0008093100280910D028F5F80930D02809199
:1002000002018F5F80930201EBC080910201815057
:100210008093020180910D02815080930D02E0C015
:10022000E0910201F0E0E95FFE4F8081823581F4C8
:100230009091100289278093100280910D028F5FA8
:1002400080930D02809102018F5F80930201C8C0EC
:100250008091020181508093020180910D028150B2
:1002600080930D02BDC0E0910201F0E0E95FFE4F16
:1002700080818823D1F0E0910201F0E0E95FFE4F38
:10028000808180930501809105019091100289275A
:100290008093100280910D028F5F80930D028091F8
:1002A00002018F5F809302019BC080910201815007
:1002B0008093020180910D02815080930D0290C0C5
:1002C000E0910201F0E0E95FFE4F808181110FC0F3
:1002D000809110028093100280910D028F5F8093B5
:1002E0000D02809102018F5F8093020179C080919D
:1002F000020181508093020180910D028150809310
:100300000D026EC0E0910201F0E0E95FFE4F8081D6
:100310008A3381F490911002892780931002809192
:100320000D028F5F80930D02809102018F5F809399
:10033000020156C080910201815080930201809198
:100340000D02815080930D024BC0E0910201F0E05C
:10035000E95FFE4F80818823D1F0E0910201F0E057
:10036000E95FFE4F908180911002892780931002EF
:10037000809102018093000180910D028F5F809334
:100380000D02809102018F5F8093020129C080914C
:10039000020181508093020180910D02815080936F
:1003A0000D021EC0E0910201F0E0E95FFE4F908176
:1003B0008091100298130AC082E08093110280910C
:1003C0000B028093020110920D020AC0809102017B
:1003D00081508093020180910D02815080930D0223
:1003E0009091020180910B02981729F080911102DF
:1003F000813009F4A2CE0895E0910001F0E0E95FB8
:10040000FE4F80818B3219F08D3239F00895809142
:100410000601816080930601089580910601826043
:10042000809306010895809106018D7F80930601D7
:10043000809106018E7F8093060187E60E9451001D
:100440000E9481000E948B0078948AE090E0909353
:1004500004018093030110920B021092020110928A
:100460000D0281E08093110210920F0210920E0291
:1004700010920C029091020180910B029817A1F04A
:100480008091060180FD10C08091060181FD0CC0A5
:1004900080911102813019F0823021F005C00E9454
:1004A0009C0002C00E94FC018091060180FF23C0D5
:1004B0008091060181FD1FC080910301909104018C
:1004C0008D32914050F480910301909104010A967D
:1004D000909304018093030106C08CE291E0909315
:1004E00004018093030181E0809311028091060151
:1004F0008E7F809306018091060181FF22C080914A
:10050000060180FD1EC080910301909104010B97AC
:1005100050F080910301909104010A979093040197
:100520008093030106C08AE090E0909304018093D9
:10053000030181E080931102809106018D7F8093F9
:10054000060180910E0290910F02892B09F092CF43
:10055000809103019091040190930F0280930E0209
:100560002D9B04C085B18F7D85B984CF85B1806214
:1005700085B980CF1F920F920FB60F9211248F93DF
:10058000EF93FF93E0910B02F0E08091C600E95FEA
:10059000FE4F808380910B028F5F80930B02FF914F
:1005A000EF918F910F900FBE0F901F9018951F9293
:1005B0000F920FB60F9211248F939F9380910E028A
:1005C00090910F02892B49F080910E0290910F02B9
:1005D000019790930F0280930E029F918F910F903D
:1005E0000FBE0F901F901895EE0FFF1F0590F4910E
:0805F000E02D0994F894FFCFFF
:00000001FF
